{
  "_format": "hh-sol-artifact-1",
  "contractName": "TokenOptimism",
  "sourceName": "contracts/token/TokenOptimism.sol",
  "abi": [
    {
      "inputs": [],
      "stateMutability": "nonpayable",
      "type": "constructor"
    },
    {
      "anonymous": false,
      "inputs": [
        {
          "indexed": true,
          "internalType": "address",
          "name": "owner",
          "type": "address"
        },
        {
          "indexed": true,
          "internalType": "address",
          "name": "spender",
          "type": "address"
        },
        {
          "indexed": false,
          "internalType": "uint256",
          "name": "value",
          "type": "uint256"
        }
      ],
      "name": "Approval",
      "type": "event"
    },
    {
      "anonymous": false,
      "inputs": [
        {
          "indexed": false,
          "internalType": "address",
          "name": "caller",
          "type": "address"
        },
        {
          "indexed": false,
          "internalType": "address",
          "name": "mintTo",
          "type": "address"
        },
        {
          "indexed": false,
          "internalType": "address",
          "name": "processor",
          "type": "address"
        },
        {
          "indexed": false,
          "internalType": "uint256",
          "name": "amount",
          "type": "uint256"
        }
      ],
      "name": "Mint",
      "type": "event"
    },
    {
      "anonymous": false,
      "inputs": [
        {
          "indexed": true,
          "internalType": "address",
          "name": "from",
          "type": "address"
        },
        {
          "indexed": true,
          "internalType": "address",
          "name": "to",
          "type": "address"
        },
        {
          "indexed": false,
          "internalType": "uint256",
          "name": "value",
          "type": "uint256"
        }
      ],
      "name": "Transfer",
      "type": "event"
    },
    {
      "inputs": [],
      "name": "admin",
      "outputs": [
        {
          "internalType": "address",
          "name": "",
          "type": "address"
        }
      ],
      "stateMutability": "view",
      "type": "function"
    },
    {
      "inputs": [
        {
          "internalType": "address",
          "name": "owner",
          "type": "address"
        },
        {
          "internalType": "address",
          "name": "spender",
          "type": "address"
        }
      ],
      "name": "allowance",
      "outputs": [
        {
          "internalType": "uint256",
          "name": "",
          "type": "uint256"
        }
      ],
      "stateMutability": "view",
      "type": "function"
    },
    {
      "inputs": [
        {
          "internalType": "address",
          "name": "spender",
          "type": "address"
        },
        {
          "internalType": "uint256",
          "name": "amount",
          "type": "uint256"
        }
      ],
      "name": "approve",
      "outputs": [
        {
          "internalType": "bool",
          "name": "",
          "type": "bool"
        }
      ],
      "stateMutability": "nonpayable",
      "type": "function"
    },
    {
      "inputs": [
        {
          "internalType": "address",
          "name": "account",
          "type": "address"
        }
      ],
      "name": "balanceOf",
      "outputs": [
        {
          "internalType": "uint256",
          "name": "",
          "type": "uint256"
        }
      ],
      "stateMutability": "view",
      "type": "function"
    },
    {
      "inputs": [],
      "name": "bridgeContract",
      "outputs": [
        {
          "internalType": "address",
          "name": "",
          "type": "address"
        }
      ],
      "stateMutability": "view",
      "type": "function"
    },
    {
      "inputs": [
        {
          "internalType": "address",
          "name": "account",
          "type": "address"
        },
        {
          "internalType": "uint256",
          "name": "amount",
          "type": "uint256"
        }
      ],
      "name": "burn",
      "outputs": [],
      "stateMutability": "nonpayable",
      "type": "function"
    },
    {
      "inputs": [
        {
          "internalType": "address",
          "name": "account",
          "type": "address"
        },
        {
          "internalType": "uint256",
          "name": "amount",
          "type": "uint256"
        },
        {
          "internalType": "address",
          "name": "processor",
          "type": "address"
        }
      ],
      "name": "burnFromBridge",
      "outputs": [],
      "stateMutability": "nonpayable",
      "type": "function"
    },
    {
      "inputs": [],
      "name": "decimals",
      "outputs": [
        {
          "internalType": "uint8",
          "name": "",
          "type": "uint8"
        }
      ],
      "stateMutability": "view",
      "type": "function"
    },
    {
      "inputs": [
        {
          "internalType": "address",
          "name": "spender",
          "type": "address"
        },
        {
          "internalType": "uint256",
          "name": "subtractedValue",
          "type": "uint256"
        }
      ],
      "name": "decreaseAllowance",
      "outputs": [
        {
          "internalType": "bool",
          "name": "",
          "type": "bool"
        }
      ],
      "stateMutability": "nonpayable",
      "type": "function"
    },
    {
      "inputs": [
        {
          "internalType": "address",
          "name": "spender",
          "type": "address"
        },
        {
          "internalType": "uint256",
          "name": "addedValue",
          "type": "uint256"
        }
      ],
      "name": "increaseAllowance",
      "outputs": [
        {
          "internalType": "bool",
          "name": "",
          "type": "bool"
        }
      ],
      "stateMutability": "nonpayable",
      "type": "function"
    },
    {
      "inputs": [
        {
          "internalType": "address",
          "name": "toAddress",
          "type": "address"
        },
        {
          "internalType": "uint256",
          "name": "amount",
          "type": "uint256"
        }
      ],
      "name": "mint",
      "outputs": [],
      "stateMutability": "nonpayable",
      "type": "function"
    },
    {
      "inputs": [
        {
          "internalType": "address",
          "name": "toAddress",
          "type": "address"
        },
        {
          "internalType": "uint256",
          "name": "amount",
          "type": "uint256"
        },
        {
          "internalType": "address",
          "name": "processor",
          "type": "address"
        }
      ],
      "name": "mintFromBridge",
      "outputs": [],
      "stateMutability": "nonpayable",
      "type": "function"
    },
    {
      "inputs": [],
      "name": "name",
      "outputs": [
        {
          "internalType": "string",
          "name": "",
          "type": "string"
        }
      ],
      "stateMutability": "view",
      "type": "function"
    },
    {
      "inputs": [
        {
          "internalType": "address",
          "name": "adminAddress",
          "type": "address"
        }
      ],
      "name": "setupBridgeContract",
      "outputs": [],
      "stateMutability": "nonpayable",
      "type": "function"
    },
    {
      "inputs": [],
      "name": "symbol",
      "outputs": [
        {
          "internalType": "string",
          "name": "",
          "type": "string"
        }
      ],
      "stateMutability": "view",
      "type": "function"
    },
    {
      "inputs": [],
      "name": "totalSupply",
      "outputs": [
        {
          "internalType": "uint256",
          "name": "",
          "type": "uint256"
        }
      ],
      "stateMutability": "view",
      "type": "function"
    },
    {
      "inputs": [
        {
          "internalType": "address",
          "name": "to",
          "type": "address"
        },
        {
          "internalType": "uint256",
          "name": "amount",
          "type": "uint256"
        }
      ],
      "name": "transfer",
      "outputs": [
        {
          "internalType": "bool",
          "name": "",
          "type": "bool"
        }
      ],
      "stateMutability": "nonpayable",
      "type": "function"
    },
    {
      "inputs": [
        {
          "internalType": "address",
          "name": "from",
          "type": "address"
        },
        {
          "internalType": "address",
          "name": "to",
          "type": "address"
        },
        {
          "internalType": "uint256",
          "name": "amount",
          "type": "uint256"
        }
      ],
      "name": "transferFrom",
      "outputs": [
        {
          "internalType": "bool",
          "name": "",
          "type": "bool"
        }
      ],
      "stateMutability": "nonpayable",
      "type": "function"
    },
    {
      "inputs": [
        {
          "internalType": "address",
          "name": "newAdmin",
          "type": "address"
        }
      ],
      "name": "updateAdmin",
      "outputs": [],
      "stateMutability": "nonpayable",
      "type": "function"
    }
  ],
  "bytecode": "0x60806040523480156200001157600080fd5b506040518060400160405280601681526020017f4375726c656e74204f7074696d69736d20546f6b656e000000000000000000008152506040518060400160405280600481526020017f434f5054000000000000000000000000000000000000000000000000000000008152508181816003908051906020019062000098929190620000fd565b508060049080519060200190620000b1929190620000fd565b50505033600560006101000a81548173ffffffffffffffffffffffffffffffffffffffff021916908373ffffffffffffffffffffffffffffffffffffffff160217905550505062000212565b8280546200010b90620001ad565b90600052602060002090601f0160209004810192826200012f57600085556200017b565b82601f106200014a57805160ff19168380011785556200017b565b828001600101855582156200017b579182015b828111156200017a5782518255916020019190600101906200015d565b5b5090506200018a91906200018e565b5090565b5b80821115620001a95760008160009055506001016200018f565b5090565b60006002820490506001821680620001c657607f821691505b60208210811415620001dd57620001dc620001e3565b5b50919050565b7f4e487b7100000000000000000000000000000000000000000000000000000000600052602260045260246000fd5b61230980620002226000396000f3fe608060405234801561001057600080fd5b50600436106101215760003560e01c806395d89b41116100ad578063c99c01d311610071578063c99c01d31461032e578063cd5965831461034a578063dd62ed3e14610368578063e2f273bd14610398578063f851a440146103b457610121565b806395d89b41146102785780639dc29fac14610296578063a457c2d7146102b2578063a9059cbb146102e2578063c733f2381461031257610121565b8063313ce567116100f4578063313ce567146101c257806339509351146101e057806340c10f1914610210578063545cbf931461022c57806370a082311461024857610121565b806306fdde0314610126578063095ea7b31461014457806318160ddd1461017457806323b872dd14610192575b600080fd5b61012e6103d2565b60405161013b919061193e565b60405180910390f35b61015e600480360381019061015991906115f3565b610464565b60405161016b9190611923565b60405180910390f35b61017c610487565b6040516101899190611b40565b60405180910390f35b6101ac60048036038101906101a791906115a0565b610491565b6040516101b99190611923565b60405180910390f35b6101ca6104c0565b6040516101d79190611b5b565b60405180910390f35b6101fa60048036038101906101f591906115f3565b6104c9565b6040516102079190611923565b60405180910390f35b61022a600480360381019061022591906115f3565b610500565b005b61024660048036038101906102419190611633565b61059e565b005b610262600480360381019061025d9190611533565b6106cd565b60405161026f9190611b40565b60405180910390f35b610280610715565b60405161028d919061193e565b60405180910390f35b6102b060048036038101906102ab91906115f3565b6107a7565b005b6102cc60048036038101906102c791906115f3565b610845565b6040516102d99190611923565b60405180910390f35b6102fc60048036038101906102f791906115f3565b6108bc565b6040516103099190611923565b60405180910390f35b61032c60048036038101906103279190611633565b6108df565b005b61034860048036038101906103439190611533565b610a6d565b005b610352610b41565b60405161035f9190611908565b60405180910390f35b610382600480360381019061037d9190611560565b610b67565b60405161038f9190611b40565b60405180910390f35b6103b260048036038101906103ad9190611533565b610bee565b005b6103bc610cc2565b6040516103c99190611908565b60405180910390f35b6060600380546103e190611d2f565b80601f016020809104026020016040519081016040528092919081815260200182805461040d90611d2f565b801561045a5780601f1061042f5761010080835404028352916020019161045a565b820191906000526020600020905b81548152906001019060200180831161043d57829003601f168201915b5050505050905090565b60008061046f610ce8565b905061047c818585610cf0565b600191505092915050565b6000600254905090565b60008061049c610ce8565b90506104a9858285610ebb565b6104b4858585610f47565b60019150509392505050565b60006012905090565b6000806104d4610ce8565b90506104f58185856104e68589610b67565b6104f09190611b92565b610cf0565b600191505092915050565b600560009054906101000a900473ffffffffffffffffffffffffffffffffffffffff1673ffffffffffffffffffffffffffffffffffffffff163373ffffffffffffffffffffffffffffffffffffffff1614610590576040517f08c379a000000000000000000000000000000000000000000000000000000000815260040161058790611a00565b60405180910390fd5b61059a82826111c8565b5050565b600560009054906101000a900473ffffffffffffffffffffffffffffffffffffffff1673ffffffffffffffffffffffffffffffffffffffff168173ffffffffffffffffffffffffffffffffffffffff161461062e576040517f08c379a000000000000000000000000000000000000000000000000000000000815260040161062590611a00565b60405180910390fd5b600660009054906101000a900473ffffffffffffffffffffffffffffffffffffffff1673ffffffffffffffffffffffffffffffffffffffff163373ffffffffffffffffffffffffffffffffffffffff16146106be576040517f08c379a00000000000000000000000000000000000000000000000000000000081526004016106b590611a60565b60405180910390fd5b6106c88383611328565b505050565b60008060008373ffffffffffffffffffffffffffffffffffffffff1673ffffffffffffffffffffffffffffffffffffffff168152602001908152602001600020549050919050565b60606004805461072490611d2f565b80601f016020809104026020016040519081016040528092919081815260200182805461075090611d2f565b801561079d5780601f106107725761010080835404028352916020019161079d565b820191906000526020600020905b81548152906001019060200180831161078057829003601f168201915b5050505050905090565b600560009054906101000a900473ffffffffffffffffffffffffffffffffffffffff1673ffffffffffffffffffffffffffffffffffffffff163373ffffffffffffffffffffffffffffffffffffffff1614610837576040517f08c379a000000000000000000000000000000000000000000000000000000000815260040161082e90611a40565b60405180910390fd5b6108418282611328565b5050565b600080610850610ce8565b9050600061085e8286610b67565b9050838110156108a3576040517f08c379a000000000000000000000000000000000000000000000000000000000815260040161089a90611b00565b60405180910390fd5b6108b08286868403610cf0565b60019250505092915050565b6000806108c7610ce8565b90506108d4818585610f47565b600191505092915050565b600560009054906101000a900473ffffffffffffffffffffffffffffffffffffffff1673ffffffffffffffffffffffffffffffffffffffff168173ffffffffffffffffffffffffffffffffffffffff161461096f576040517f08c379a000000000000000000000000000000000000000000000000000000000815260040161096690611a00565b60405180910390fd5b600660009054906101000a900473ffffffffffffffffffffffffffffffffffffffff1673ffffffffffffffffffffffffffffffffffffffff163373ffffffffffffffffffffffffffffffffffffffff16146109ff576040517f08c379a00000000000000000000000000000000000000000000000000000000081526004016109f690611a60565b60405180910390fd5b610a44600560009054906101000a900473ffffffffffffffffffffffffffffffffffffffff16612710846019610a359190611c19565b610a3f9190611be8565b6111c8565b610a6883612710846126f7610a599190611c19565b610a639190611be8565b6111c8565b505050565b600560009054906101000a900473ffffffffffffffffffffffffffffffffffffffff1673ffffffffffffffffffffffffffffffffffffffff168173ffffffffffffffffffffffffffffffffffffffff1614610afd576040517f08c379a0000000000000000000000000000000000000000000000000000000008152600401610af490611ae0565b60405180910390fd5b33600660006101000a81548173ffffffffffffffffffffffffffffffffffffffff021916908373ffffffffffffffffffffffffffffffffffffffff16021790555050565b600660009054906101000a900473ffffffffffffffffffffffffffffffffffffffff1681565b6000600160008473ffffffffffffffffffffffffffffffffffffffff1673ffffffffffffffffffffffffffffffffffffffff16815260200190815260200160002060008373ffffffffffffffffffffffffffffffffffffffff1673ffffffffffffffffffffffffffffffffffffffff16815260200190815260200160002054905092915050565b600560009054906101000a900473ffffffffffffffffffffffffffffffffffffffff1673ffffffffffffffffffffffffffffffffffffffff163373ffffffffffffffffffffffffffffffffffffffff1614610c7e576040517f08c379a0000000000000000000000000000000000000000000000000000000008152600401610c7590611a20565b60405180910390fd5b80600560006101000a81548173ffffffffffffffffffffffffffffffffffffffff021916908373ffffffffffffffffffffffffffffffffffffffff16021790555050565b600560009054906101000a900473ffffffffffffffffffffffffffffffffffffffff1681565b600033905090565b600073ffffffffffffffffffffffffffffffffffffffff168373ffffffffffffffffffffffffffffffffffffffff161415610d60576040517f08c379a0000000000000000000000000000000000000000000000000000000008152600401610d5790611ac0565b60405180910390fd5b600073ffffffffffffffffffffffffffffffffffffffff168273ffffffffffffffffffffffffffffffffffffffff161415610dd0576040517f08c379a0000000000000000000000000000000000000000000000000000000008152600401610dc7906119a0565b60405180910390fd5b80600160008573ffffffffffffffffffffffffffffffffffffffff1673ffffffffffffffffffffffffffffffffffffffff16815260200190815260200160002060008473ffffffffffffffffffffffffffffffffffffffff1673ffffffffffffffffffffffffffffffffffffffff168152602001908152602001600020819055508173ffffffffffffffffffffffffffffffffffffffff168373ffffffffffffffffffffffffffffffffffffffff167f8c5be1e5ebec7d5bd14f71427d1e84f3dd0314c0f7b2291e5b200ac8c7c3b92583604051610eae9190611b40565b60405180910390a3505050565b6000610ec78484610b67565b90507fffffffffffffffffffffffffffffffffffffffffffffffffffffffffffffffff8114610f415781811015610f33576040517f08c379a0000000000000000000000000000000000000000000000000000000008152600401610f2a906119c0565b60405180910390fd5b610f408484848403610cf0565b5b50505050565b600073ffffffffffffffffffffffffffffffffffffffff168373ffffffffffffffffffffffffffffffffffffffff161415610fb7576040517f08c379a0000000000000000000000000000000000000000000000000000000008152600401610fae90611aa0565b60405180910390fd5b600073ffffffffffffffffffffffffffffffffffffffff168273ffffffffffffffffffffffffffffffffffffffff161415611027576040517f08c379a000000000000000000000000000000000000000000000000000000000815260040161101e90611960565b60405180910390fd5b6110328383836114ff565b60008060008573ffffffffffffffffffffffffffffffffffffffff1673ffffffffffffffffffffffffffffffffffffffff168152602001908152602001600020549050818110156110b8576040517f08c379a00000000000000000000000000000000000000000000000000000000081526004016110af906119e0565b60405180910390fd5b8181036000808673ffffffffffffffffffffffffffffffffffffffff1673ffffffffffffffffffffffffffffffffffffffff16815260200190815260200160002081905550816000808573ffffffffffffffffffffffffffffffffffffffff1673ffffffffffffffffffffffffffffffffffffffff168152602001908152602001600020600082825461114b9190611b92565b925050819055508273ffffffffffffffffffffffffffffffffffffffff168473ffffffffffffffffffffffffffffffffffffffff167fddf252ad1be2c89b69c2b068fc378daa952ba7f163c4a11628f55a4df523b3ef846040516111af9190611b40565b60405180910390a36111c2848484611504565b50505050565b600073ffffffffffffffffffffffffffffffffffffffff168273ffffffffffffffffffffffffffffffffffffffff161415611238576040517f08c379a000000000000000000000000000000000000000000000000000000000815260040161122f90611b20565b60405180910390fd5b611244600083836114ff565b80600260008282546112569190611b92565b92505081905550806000808473ffffffffffffffffffffffffffffffffffffffff1673ffffffffffffffffffffffffffffffffffffffff16815260200190815260200160002060008282546112ab9190611b92565b925050819055508173ffffffffffffffffffffffffffffffffffffffff16600073ffffffffffffffffffffffffffffffffffffffff167fddf252ad1be2c89b69c2b068fc378daa952ba7f163c4a11628f55a4df523b3ef836040516113109190611b40565b60405180910390a361132460008383611504565b5050565b600073ffffffffffffffffffffffffffffffffffffffff168273ffffffffffffffffffffffffffffffffffffffff161415611398576040517f08c379a000000000000000000000000000000000000000000000000000000000815260040161138f90611a80565b60405180910390fd5b6113a4826000836114ff565b60008060008473ffffffffffffffffffffffffffffffffffffffff1673ffffffffffffffffffffffffffffffffffffffff1681526020019081526020016000205490508181101561142a576040517f08c379a000000000000000000000000000000000000000000000000000000000815260040161142190611980565b60405180910390fd5b8181036000808573ffffffffffffffffffffffffffffffffffffffff1673ffffffffffffffffffffffffffffffffffffffff1681526020019081526020016000208190555081600260008282546114819190611c73565b92505081905550600073ffffffffffffffffffffffffffffffffffffffff168373ffffffffffffffffffffffffffffffffffffffff167fddf252ad1be2c89b69c2b068fc378daa952ba7f163c4a11628f55a4df523b3ef846040516114e69190611b40565b60405180910390a36114fa83600084611504565b505050565b505050565b505050565b600081359050611518816122a5565b92915050565b60008135905061152d816122bc565b92915050565b60006020828403121561154957611548611dee565b5b600061155784828501611509565b91505092915050565b6000806040838503121561157757611576611dee565b5b600061158585828601611509565b925050602061159685828601611509565b9150509250929050565b6000806000606084860312156115b9576115b8611dee565b5b60006115c786828701611509565b93505060206115d886828701611509565b92505060406115e98682870161151e565b9150509250925092565b6000806040838503121561160a57611609611dee565b5b600061161885828601611509565b92505060206116298582860161151e565b9150509250929050565b60008060006060848603121561164c5761164b611dee565b5b600061165a86828701611509565b935050602061166b8682870161151e565b925050604061167c86828701611509565b9150509250925092565b61168f81611ca7565b82525050565b61169e81611cb9565b82525050565b60006116af82611b76565b6116b98185611b81565b93506116c9818560208601611cfc565b6116d281611df3565b840191505092915050565b60006116ea602383611b81565b91506116f582611e04565b604082019050919050565b600061170d602283611b81565b915061171882611e53565b604082019050919050565b6000611730602283611b81565b915061173b82611ea2565b604082019050919050565b6000611753601d83611b81565b915061175e82611ef1565b602082019050919050565b6000611776602683611b81565b915061178182611f1a565b604082019050919050565b6000611799603983611b81565b91506117a482611f69565b604082019050919050565b60006117bc602483611b81565b91506117c782611fb8565b604082019050919050565b60006117df603683611b81565b91506117ea82612007565b604082019050919050565b6000611802605083611b81565b915061180d82612056565b606082019050919050565b6000611825602183611b81565b9150611830826120cb565b604082019050919050565b6000611848602583611b81565b91506118538261211a565b604082019050919050565b600061186b602483611b81565b915061187682612169565b604082019050919050565b600061188e604283611b81565b9150611899826121b8565b606082019050919050565b60006118b1602583611b81565b91506118bc8261222d565b604082019050919050565b60006118d4601f83611b81565b91506118df8261227c565b602082019050919050565b6118f381611ce5565b82525050565b61190281611cef565b82525050565b600060208201905061191d6000830184611686565b92915050565b60006020820190506119386000830184611695565b92915050565b6000602082019050818103600083015261195881846116a4565b905092915050565b60006020820190508181036000830152611979816116dd565b9050919050565b6000602082019050818103600083015261199981611700565b9050919050565b600060208201905081810360008301526119b981611723565b9050919050565b600060208201905081810360008301526119d981611746565b9050919050565b600060208201905081810360008301526119f981611769565b9050919050565b60006020820190508181036000830152611a198161178c565b9050919050565b60006020820190508181036000830152611a39816117af565b9050919050565b60006020820190508181036000830152611a59816117d2565b9050919050565b60006020820190508181036000830152611a79816117f5565b9050919050565b60006020820190508181036000830152611a9981611818565b9050919050565b60006020820190508181036000830152611ab98161183b565b9050919050565b60006020820190508181036000830152611ad98161185e565b9050919050565b60006020820190508181036000830152611af981611881565b9050919050565b60006020820190508181036000830152611b19816118a4565b9050919050565b60006020820190508181036000830152611b39816118c7565b9050919050565b6000602082019050611b5560008301846118ea565b92915050565b6000602082019050611b7060008301846118f9565b92915050565b600081519050919050565b600082825260208201905092915050565b6000611b9d82611ce5565b9150611ba883611ce5565b9250827fffffffffffffffffffffffffffffffffffffffffffffffffffffffffffffffff03821115611bdd57611bdc611d61565b5b828201905092915050565b6000611bf382611ce5565b9150611bfe83611ce5565b925082611c0e57611c0d611d90565b5b828204905092915050565b6000611c2482611ce5565b9150611c2f83611ce5565b9250817fffffffffffffffffffffffffffffffffffffffffffffffffffffffffffffffff0483118215151615611c6857611c67611d61565b5b828202905092915050565b6000611c7e82611ce5565b9150611c8983611ce5565b925082821015611c9c57611c9b611d61565b5b828203905092915050565b6000611cb282611cc5565b9050919050565b60008115159050919050565b600073ffffffffffffffffffffffffffffffffffffffff82169050919050565b6000819050919050565b600060ff82169050919050565b60005b83811015611d1a578082015181840152602081019050611cff565b83811115611d29576000848401525b50505050565b60006002820490506001821680611d4757607f821691505b60208210811415611d5b57611d5a611dbf565b5b50919050565b7f4e487b7100000000000000000000000000000000000000000000000000000000600052601160045260246000fd5b7f4e487b7100000000000000000000000000000000000000000000000000000000600052601260045260246000fd5b7f4e487b7100000000000000000000000000000000000000000000000000000000600052602260045260246000fd5b600080fd5b6000601f19601f8301169050919050565b7f45524332303a207472616e7366657220746f20746865207a65726f206164647260008201527f6573730000000000000000000000000000000000000000000000000000000000602082015250565b7f45524332303a206275726e20616d6f756e7420657863656564732062616c616e60008201527f6365000000000000000000000000000000000000000000000000000000000000602082015250565b7f45524332303a20617070726f766520746f20746865207a65726f20616464726560008201527f7373000000000000000000000000000000000000000000000000000000000000602082015250565b7f45524332303a20696e73756666696369656e7420616c6c6f77616e6365000000600082015250565b7f45524332303a207472616e7366657220616d6f756e742065786365656473206260008201527f616c616e63650000000000000000000000000000000000000000000000000000602082015250565b7f4f6e6c792061646d696e2063616e206d696e74207468697320746f6b656e207460008201527f6f206f746865722070656f706c65277320616464726573732e00000000000000602082015250565b7f4f6e6c79206f6c642061646d696e2063616e20757064617465206e657720616460008201527f6d696e2e00000000000000000000000000000000000000000000000000000000602082015250565b7f4f6e6c792061646d696e2063616e206275726e20746f6b656e2066726f6d206f60008201527f7468657227732070656f706c65206163636f756e742e00000000000000000000602082015250565b7f4f6e6c792063616c6c696e672066726f6d2062726964676520636f6e7472616360008201527f742063616e206d696e74207468697320746f6b656e20746f206f74686572207060208201527f656f706c65277320616464726573732e00000000000000000000000000000000604082015250565b7f45524332303a206275726e2066726f6d20746865207a65726f2061646472657360008201527f7300000000000000000000000000000000000000000000000000000000000000602082015250565b7f45524332303a207472616e736665722066726f6d20746865207a65726f20616460008201527f6472657373000000000000000000000000000000000000000000000000000000602082015250565b7f45524332303a20617070726f76652066726f6d20746865207a65726f2061646460008201527f7265737300000000000000000000000000000000000000000000000000000000602082015250565b7f4f6e6c792061646d696e2063616e2061737369676e206272696467652061646460008201527f7265737320746f207468697320746f6b656e20736d61727420636f6e7472616360208201527f742e000000000000000000000000000000000000000000000000000000000000604082015250565b7f45524332303a2064656372656173656420616c6c6f77616e63652062656c6f7760008201527f207a65726f000000000000000000000000000000000000000000000000000000602082015250565b7f45524332303a206d696e7420746f20746865207a65726f206164647265737300600082015250565b6122ae81611ca7565b81146122b957600080fd5b50565b6122c581611ce5565b81146122d057600080fd5b5056fea2646970667358221220a9c3f0db381d4ad27499dad72447a1b4a9988afcc52409cbf19e8f5716d9219564736f6c63430008070033",
  "linkReferences": {},
  "deployedLinkReferences": {}
}