{
  "_format": "hh-sol-artifact-1",
  "contractName": "BridgeBase",
  "sourceName": "contracts/bridge/BridgeBase.sol",
  "abi": [
    {
      "inputs": [
        {
          "internalType": "address",
          "name": "_token",
          "type": "address"
        }
      ],
      "stateMutability": "nonpayable",
      "type": "constructor"
    },
    {
      "anonymous": false,
      "inputs": [
        {
          "indexed": false,
          "internalType": "address",
          "name": "processor",
          "type": "address"
        },
        {
          "indexed": false,
          "internalType": "address",
          "name": "to",
          "type": "address"
        },
        {
          "indexed": false,
          "internalType": "uint256",
          "name": "amount",
          "type": "uint256"
        },
        {
          "indexed": false,
          "internalType": "uint256",
          "name": "date",
          "type": "uint256"
        },
        {
          "indexed": false,
          "internalType": "uint256",
          "name": "nonce",
          "type": "uint256"
        },
        {
          "indexed": true,
          "internalType": "enum BridgeBase.Step",
          "name": "step",
          "type": "uint8"
        }
      ],
      "name": "Transfer",
      "type": "event"
    },
    {
      "inputs": [],
      "name": "admin",
      "outputs": [
        {
          "internalType": "address",
          "name": "",
          "type": "address"
        }
      ],
      "stateMutability": "view",
      "type": "function"
    },
    {
      "inputs": [
        {
          "internalType": "address",
          "name": "account",
          "type": "address"
        },
        {
          "internalType": "uint256",
          "name": "amount",
          "type": "uint256"
        }
      ],
      "name": "burnByBridge",
      "outputs": [],
      "stateMutability": "nonpayable",
      "type": "function"
    },
    {
      "inputs": [
        {
          "internalType": "address",
          "name": "toAddress",
          "type": "address"
        },
        {
          "internalType": "uint256",
          "name": "amount",
          "type": "uint256"
        },
        {
          "internalType": "uint256",
          "name": "otherChainNonce",
          "type": "uint256"
        }
      ],
      "name": "mintByBridge",
      "outputs": [],
      "stateMutability": "nonpayable",
      "type": "function"
    },
    {
      "inputs": [],
      "name": "nonce",
      "outputs": [
        {
          "internalType": "uint256",
          "name": "",
          "type": "uint256"
        }
      ],
      "stateMutability": "view",
      "type": "function"
    },
    {
      "inputs": [
        {
          "internalType": "uint256",
          "name": "",
          "type": "uint256"
        }
      ],
      "name": "processedNonces",
      "outputs": [
        {
          "internalType": "bool",
          "name": "",
          "type": "bool"
        }
      ],
      "stateMutability": "view",
      "type": "function"
    },
    {
      "inputs": [],
      "name": "token",
      "outputs": [
        {
          "internalType": "contract IToken",
          "name": "",
          "type": "address"
        }
      ],
      "stateMutability": "view",
      "type": "function"
    }
  ],
  "bytecode": "0x60806040523480156200001157600080fd5b5060405162000cdb38038062000cdb83398181016040528101906200003791906200020c565b336000806101000a81548173ffffffffffffffffffffffffffffffffffffffff021916908373ffffffffffffffffffffffffffffffffffffffff16021790555080600160006101000a81548173ffffffffffffffffffffffffffffffffffffffff021916908373ffffffffffffffffffffffffffffffffffffffff160217905550620000c933620000d060201b60201c565b5062000368565b60008054906101000a900473ffffffffffffffffffffffffffffffffffffffff1673ffffffffffffffffffffffffffffffffffffffff168173ffffffffffffffffffffffffffffffffffffffff161462000161576040517f08c379a0000000000000000000000000000000000000000000000000000000008152600401620001589062000293565b60405180910390fd5b600160009054906101000a900473ffffffffffffffffffffffffffffffffffffffff1673ffffffffffffffffffffffffffffffffffffffff1663c99c01d3826040518263ffffffff1660e01b8152600401620001be919062000276565b600060405180830381600087803b158015620001d957600080fd5b505af1158015620001ee573d6000803e3d6000fd5b5050505050565b60008151905062000206816200034e565b92915050565b600060208284031215620002255762000224620002fa565b5b60006200023584828501620001f5565b91505092915050565b6200024981620002c6565b82525050565b60006200025e603d83620002b5565b91506200026b82620002ff565b604082019050919050565b60006020820190506200028d60008301846200023e565b92915050565b60006020820190508181036000830152620002ae816200024f565b9050919050565b600082825260208201905092915050565b6000620002d382620002da565b9050919050565b600073ffffffffffffffffffffffffffffffffffffffff82169050919050565b600080fd5b7f4f6e6c792061646d696e2063616e2061737369676e207468697320627269646760008201527f6520636f6e747261637420746f20746f6b656e20636f6e74726163742e000000602082015250565b6200035981620002c6565b81146200036557600080fd5b50565b61096380620003786000396000f3fe608060405234801561001057600080fd5b50600436106100625760003560e01c806366830b211461006757806391dae51914610083578063affed0e0146100b3578063b6cf1709146100d1578063f851a440146100ed578063fc0c546a1461010b575b600080fd5b610081600480360381019061007c91906104d4565b610129565b005b61009d60048036038101906100989190610567565b61022b565b6040516100aa91906106bb565b60405180910390f35b6100bb61024b565b6040516100c89190610731565b60405180910390f35b6100eb60048036038101906100e69190610514565b610251565b005b6100f5610460565b6040516101029190610616565b60405180910390f35b610113610484565b60405161012091906106d6565b60405180910390f35b600160009054906101000a900473ffffffffffffffffffffffffffffffffffffffff1673ffffffffffffffffffffffffffffffffffffffff1663545cbf938383336040518463ffffffff1660e01b815260040161018893929190610684565b600060405180830381600087803b1580156101a257600080fd5b505af11580156101b6573d6000803e3d6000fd5b50505050600060018111156101ce576101cd610853565b5b7f27757542a5e1b9e8cef80f584e094d4eb63b9802f355c61b3640b71b618d5c8e33848442600254604051610207959493929190610631565b60405180910390a260026000815480929190610222906107db565b91905055505050565b60036020528060005260406000206000915054906101000a900460ff1681565b60025481565b60008054906101000a900473ffffffffffffffffffffffffffffffffffffffff1673ffffffffffffffffffffffffffffffffffffffff163373ffffffffffffffffffffffffffffffffffffffff16146102df576040517f08c379a00000000000000000000000000000000000000000000000000000000081526004016102d6906106f1565b60405180910390fd5b600015156003600083815260200190815260200160002060009054906101000a900460ff16151514610346576040517f08c379a000000000000000000000000000000000000000000000000000000000815260040161033d90610711565b60405180910390fd5b600033905060016003600084815260200190815260200160002060006101000a81548160ff021916908315150217905550600160009054906101000a900473ffffffffffffffffffffffffffffffffffffffff1673ffffffffffffffffffffffffffffffffffffffff1663c733f2388585846040518463ffffffff1660e01b81526004016103d693929190610684565b600060405180830381600087803b1580156103f057600080fd5b505af1158015610404573d6000803e3d6000fd5b5050505060018081111561041b5761041a610853565b5b7f27757542a5e1b9e8cef80f584e094d4eb63b9802f355c61b3640b71b618d5c8e8286864287604051610452959493929190610631565b60405180910390a250505050565b60008054906101000a900473ffffffffffffffffffffffffffffffffffffffff1681565b600160009054906101000a900473ffffffffffffffffffffffffffffffffffffffff1681565b6000813590506104b9816108ff565b92915050565b6000813590506104ce81610916565b92915050565b600080604083850312156104eb576104ea610882565b5b60006104f9858286016104aa565b925050602061050a858286016104bf565b9150509250929050565b60008060006060848603121561052d5761052c610882565b5b600061053b868287016104aa565b935050602061054c868287016104bf565b925050604061055d868287016104bf565b9150509250925092565b60006020828403121561057d5761057c610882565b5b600061058b848285016104bf565b91505092915050565b61059d8161075d565b82525050565b6105ac8161076f565b82525050565b6105bb816107a5565b82525050565b60006105ce603b8361074c565b91506105d982610887565b604082019050919050565b60006105f1601a8361074c565b91506105fc826108d6565b602082019050919050565b6106108161079b565b82525050565b600060208201905061062b6000830184610594565b92915050565b600060a0820190506106466000830188610594565b6106536020830187610594565b6106606040830186610607565b61066d6060830185610607565b61067a6080830184610607565b9695505050505050565b60006060820190506106996000830186610594565b6106a66020830185610607565b6106b36040830184610594565b949350505050565b60006020820190506106d060008301846105a3565b92915050565b60006020820190506106eb60008301846105b2565b92915050565b6000602082019050818103600083015261070a816105c1565b9050919050565b6000602082019050818103600083015261072a816105e4565b9050919050565b60006020820190506107466000830184610607565b92915050565b600082825260208201905092915050565b60006107688261077b565b9050919050565b60008115159050919050565b600073ffffffffffffffffffffffffffffffffffffffff82169050919050565b6000819050919050565b60006107b0826107b7565b9050919050565b60006107c2826107c9565b9050919050565b60006107d48261077b565b9050919050565b60006107e68261079b565b91507fffffffffffffffffffffffffffffffffffffffffffffffffffffffffffffffff82141561081957610818610824565b5b600182019050919050565b7f4e487b7100000000000000000000000000000000000000000000000000000000600052601160045260246000fd5b7f4e487b7100000000000000000000000000000000000000000000000000000000600052602160045260246000fd5b600080fd5b7f4f6e6c792061646d696e2063616e206d696e74204375726c656e7420746f6b6560008201527f6e20746f206f746865722070656f706c652773206163636f756e740000000000602082015250565b7f7472616e7366657220616c72656164792070726f636573736564000000000000600082015250565b6109088161075d565b811461091357600080fd5b50565b61091f8161079b565b811461092a57600080fd5b5056fea26469706673582212209fb2a07e15819f8c54c507163a6bffb7349e7ff008c4649b81dfc69cd2f00a1564736f6c63430008070033",
  "linkReferences": {},
  "deployedLinkReferences": {}
}